{
  "contractName": "ICORegistration",
  "abi": [
    {
      "constant": false,
      "inputs": [
        {
          "name": "addr",
          "type": "address"
        }
      ],
      "name": "registerForICO",
      "outputs": [
        {
          "name": "success",
          "type": "bool"
        }
      ],
      "payable": false,
      "stateMutability": "nonpayable",
      "type": "function",
      "signature": "0x39db4a37"
    },
    {
      "constant": true,
      "inputs": [],
      "name": "returnICO",
      "outputs": [
        {
          "name": "",
          "type": "address[]"
        }
      ],
      "payable": false,
      "stateMutability": "view",
      "type": "function",
      "signature": "0x472e7905"
    }
  ],
  "bytecode": "0x608060405234801561001057600080fd5b50610250806100206000396000f3fe60806040526004361061004c576000357c0100000000000000000000000000000000000000000000000000000000900463ffffffff16806339db4a3714610051578063472e7905146100ba575b600080fd5b34801561005d57600080fd5b506100a06004803603602081101561007457600080fd5b81019080803573ffffffffffffffffffffffffffffffffffffffff169060200190929190505050610126565b604051808215151515815260200191505060405180910390f35b3480156100c657600080fd5b506100cf610196565b6040518080602001828103825283818151815260200191508051906020019060200280838360005b838110156101125780820151818401526020810190506100f7565b505050509050019250505060405180910390f35b6000808290806001815401808255809150509060018203906000526020600020016000909192909190916101000a81548173ffffffffffffffffffffffffffffffffffffffff021916908373ffffffffffffffffffffffffffffffffffffffff1602179055505060019050919050565b6060600080548060200260200160405190810160405280929190818152602001828054801561021a57602002820191906000526020600020905b8160009054906101000a900473ffffffffffffffffffffffffffffffffffffffff1673ffffffffffffffffffffffffffffffffffffffff16815260200190600101908083116101d0575b505050505090509056fea165627a7a72305820071d4223a03da5bb8a3ec578df217ace8632cb7ee1f8e45bec1a4c30bf6c4b4f0029",
  "source": "pragma solidity ^0.5.0;\n// Contract to hold the ICO registration\ncontract ICORegistration {\n    address[]  ICO;\n// Function add the external user account to the ICO registration list   \nfunction registerForICO(address addr) public  returns (bool success) {\nICO.push(addr);\nreturn true;\n}\n// Getter to return the list of all ICO address\nfunction returnICO() public view returns (address[] memory) {\n    return ICO;\n}\n}",
  "sourcePath": "/home/karthika/Desktop/CED_SELECTED_PROJECTS/betcoin-ram/contracts/ICORegistration.sol",
  "compiler": {
    "name": "solc",
    "version": "0.5.0+commit.1d4f565a.Emscripten.clang"
  },
  "schemaVersion": "3.0.8",
  "updatedAt": "2019-05-03T04:34:04.694Z",
  "devdoc": {
    "methods": {}
  },
  "userdoc": {
    "methods": {}
  }
}