{
  "contractName": "Wager",
  "abi": [
    {
      "constant": true,
      "inputs": [],
      "name": "wagerCap",
      "outputs": [
        {
          "name": "",
          "type": "uint256"
        }
      ],
      "payable": false,
      "stateMutability": "view",
      "type": "function",
      "signature": "0x3e9cb219"
    },
    {
      "constant": true,
      "inputs": [
        {
          "name": "",
          "type": "address"
        }
      ],
      "name": "bidYesRecord",
      "outputs": [
        {
          "name": "",
          "type": "uint256"
        }
      ],
      "payable": false,
      "stateMutability": "view",
      "type": "function",
      "signature": "0x3fe25be5"
    },
    {
      "constant": true,
      "inputs": [],
      "name": "wagerOwner",
      "outputs": [
        {
          "name": "",
          "type": "address"
        }
      ],
      "payable": false,
      "stateMutability": "view",
      "type": "function",
      "signature": "0x69ec0bd5"
    },
    {
      "constant": true,
      "inputs": [],
      "name": "wagerTitle",
      "outputs": [
        {
          "name": "",
          "type": "string"
        }
      ],
      "payable": false,
      "stateMutability": "view",
      "type": "function",
      "signature": "0x7e344d87"
    },
    {
      "constant": true,
      "inputs": [],
      "name": "bidTotal",
      "outputs": [
        {
          "name": "",
          "type": "uint256"
        }
      ],
      "payable": false,
      "stateMutability": "view",
      "type": "function",
      "signature": "0x9346e300"
    },
    {
      "constant": true,
      "inputs": [
        {
          "name": "",
          "type": "address"
        }
      ],
      "name": "bidNoRecord",
      "outputs": [
        {
          "name": "",
          "type": "uint256"
        }
      ],
      "payable": false,
      "stateMutability": "view",
      "type": "function",
      "signature": "0xd5ec2ce5"
    },
    {
      "constant": true,
      "inputs": [],
      "name": "escrowAC",
      "outputs": [
        {
          "name": "",
          "type": "address"
        }
      ],
      "payable": false,
      "stateMutability": "view",
      "type": "function",
      "signature": "0xf8850ebf"
    },
    {
      "inputs": [],
      "payable": false,
      "stateMutability": "nonpayable",
      "type": "constructor",
      "signature": "constructor"
    },
    {
      "constant": false,
      "inputs": [
        {
          "name": "_wagerTitle",
          "type": "string"
        },
        {
          "name": "_wagerCap",
          "type": "uint256"
        },
        {
          "name": "_escrowAC",
          "type": "address"
        },
        {
          "name": "_coinAddr",
          "type": "address"
        }
      ],
      "name": "startWager",
      "outputs": [
        {
          "name": "success",
          "type": "bool"
        }
      ],
      "payable": false,
      "stateMutability": "nonpayable",
      "type": "function",
      "signature": "0xbed6c633"
    },
    {
      "constant": true,
      "inputs": [],
      "name": "isItAlive",
      "outputs": [
        {
          "name": "",
          "type": "bool"
        }
      ],
      "payable": false,
      "stateMutability": "view",
      "type": "function",
      "signature": "0x3a1cc844"
    },
    {
      "constant": true,
      "inputs": [],
      "name": "retWagerName",
      "outputs": [
        {
          "name": "",
          "type": "string"
        }
      ],
      "payable": false,
      "stateMutability": "view",
      "type": "function",
      "signature": "0x3aa2ce83"
    },
    {
      "constant": true,
      "inputs": [],
      "name": "retWagerCap",
      "outputs": [
        {
          "name": "",
          "type": "uint256"
        }
      ],
      "payable": false,
      "stateMutability": "view",
      "type": "function",
      "signature": "0x2f231d26"
    },
    {
      "constant": true,
      "inputs": [],
      "name": "retEscrowAC",
      "outputs": [
        {
          "name": "",
          "type": "address"
        }
      ],
      "payable": false,
      "stateMutability": "view",
      "type": "function",
      "signature": "0x264dddc0"
    },
    {
      "constant": true,
      "inputs": [],
      "name": "retWagerOwner",
      "outputs": [
        {
          "name": "",
          "type": "address"
        }
      ],
      "payable": false,
      "stateMutability": "view",
      "type": "function",
      "signature": "0xc7138ae3"
    },
    {
      "constant": false,
      "inputs": [
        {
          "name": "_bidder",
          "type": "address"
        },
        {
          "name": "_bidCount",
          "type": "uint256"
        },
        {
          "name": "typeValue",
          "type": "bool"
        }
      ],
      "name": "bid",
      "outputs": [
        {
          "name": "success",
          "type": "bool"
        }
      ],
      "payable": false,
      "stateMutability": "nonpayable",
      "type": "function",
      "signature": "0x878d9b7a"
    },
    {
      "constant": false,
      "inputs": [
        {
          "name": "closingBell",
          "type": "bool"
        }
      ],
      "name": "closeWager",
      "outputs": [
        {
          "name": "success",
          "type": "bool"
        }
      ],
      "payable": true,
      "stateMutability": "payable",
      "type": "function",
      "signature": "0x24b36819"
    },
    {
      "constant": false,
      "inputs": [],
      "name": "reset",
      "outputs": [
        {
          "name": "success",
          "type": "bool"
        }
      ],
      "payable": false,
      "stateMutability": "nonpayable",
      "type": "function",
      "signature": "0xd826f88f"
    }
  ],
  "bytecode": "0x608060405260006005556000600660006101000a81548160ff0219169083151502179055506000600660016101000a81548160ff02191690831515021790555034801561004b57600080fd5b50336000806101000a81548173ffffffffffffffffffffffffffffffffffffffff021916908373ffffffffffffffffffffffffffffffffffffffff160217905550611a3a8061009b6000396000f3fe6080604052600436106100e6576000357c0100000000000000000000000000000000000000000000000000000000900463ffffffff16806324b36819146100eb578063264dddc0146101335780632f231d261461018a5780633a1cc844146101b55780633aa2ce83146101e45780633e9cb219146102745780633fe25be51461029f57806369ec0bd5146103045780637e344d871461035b578063878d9b7a146103eb5780639346e3001461046a578063bed6c63314610495578063c7138ae3146105bf578063d5ec2ce514610616578063d826f88f1461067b578063f8850ebf146106aa575b600080fd5b6101196004803603602081101561010157600080fd5b81019080803515159060200190929190505050610701565b604051808215151515815260200191505060405180910390f35b34801561013f57600080fd5b50610148611034565b604051808273ffffffffffffffffffffffffffffffffffffffff1673ffffffffffffffffffffffffffffffffffffffff16815260200191505060405180910390f35b34801561019657600080fd5b5061019f61105e565b6040518082815260200191505060405180910390f35b3480156101c157600080fd5b506101ca611068565b604051808215151515815260200191505060405180910390f35b3480156101f057600080fd5b506101f961107f565b6040518080602001828103825283818151815260200191508051906020019080838360005b8381101561023957808201518184015260208101905061021e565b50505050905090810190601f1680156102665780820380516001836020036101000a031916815260200191505b509250505060405180910390f35b34801561028057600080fd5b50610289611121565b6040518082815260200191505060405180910390f35b3480156102ab57600080fd5b506102ee600480360360208110156102c257600080fd5b81019080803573ffffffffffffffffffffffffffffffffffffffff169060200190929190505050611127565b6040518082815260200191505060405180910390f35b34801561031057600080fd5b5061031961113f565b604051808273ffffffffffffffffffffffffffffffffffffffff1673ffffffffffffffffffffffffffffffffffffffff16815260200191505060405180910390f35b34801561036757600080fd5b50610370611165565b6040518080602001828103825283818151815260200191508051906020019080838360005b838110156103b0578082015181840152602081019050610395565b50505050905090810190601f1680156103dd5780820380516001836020036101000a031916815260200191505b509250505060405180910390f35b3480156103f757600080fd5b506104506004803603606081101561040e57600080fd5b81019080803573ffffffffffffffffffffffffffffffffffffffff16906020019092919080359060200190929190803515159060200190929190505050611203565b604051808215151515815260200191505060405180910390f35b34801561047657600080fd5b5061047f61156b565b6040518082815260200191505060405180910390f35b3480156104a157600080fd5b506105a5600480360360808110156104b857600080fd5b81019080803590602001906401000000008111156104d557600080fd5b8201836020820111156104e757600080fd5b8035906020019184600183028401116401000000008311171561050957600080fd5b91908080601f016020809104026020016040519081016040528093929190818152602001838380828437600081840152601f19601f82011690508083019250505050505050919291929080359060200190929190803573ffffffffffffffffffffffffffffffffffffffff169060200190929190803573ffffffffffffffffffffffffffffffffffffffff169060200190929190505050611571565b604051808215151515815260200191505060405180910390f35b3480156105cb57600080fd5b506105d461187e565b604051808273ffffffffffffffffffffffffffffffffffffffff1673ffffffffffffffffffffffffffffffffffffffff16815260200191505060405180910390f35b34801561062257600080fd5b506106656004803603602081101561063957600080fd5b81019080803573ffffffffffffffffffffffffffffffffffffffff1690602001909291905050506118a8565b6040518082815260200191505060405180910390f35b34801561068757600080fd5b506106906118c0565b604051808215151515815260200191505060405180910390f35b3480156106b657600080fd5b506106bf611922565b604051808273ffffffffffffffffffffffffffffffffffffffff1673ffffffffffffffffffffffffffffffffffffffff16815260200191505060405180910390f35b6000600b60009054906101000a900473ffffffffffffffffffffffffffffffffffffffff16600660026101000a81548173ffffffffffffffffffffffffffffffffffffffff021916908373ffffffffffffffffffffffffffffffffffffffff16021790555081156109b35760008090505b6009805490508110156109ad57600060098281548110151561079057fe5b9060005260206000200160009054906101000a900473ffffffffffffffffffffffffffffffffffffffff1690506000600760008373ffffffffffffffffffffffffffffffffffffffff1673ffffffffffffffffffffffffffffffffffffffff168152602001908152602001600020549050600760008373ffffffffffffffffffffffffffffffffffffffff1673ffffffffffffffffffffffffffffffffffffffff16815260200190815260200160002060009055600660029054906101000a900473ffffffffffffffffffffffffffffffffffffffff1673ffffffffffffffffffffffffffffffffffffffff1663beabacc8600260009054906101000a900473ffffffffffffffffffffffffffffffffffffffff1684600285026040518463ffffffff167c0100000000000000000000000000000000000000000000000000000000028152600401808473ffffffffffffffffffffffffffffffffffffffff1673ffffffffffffffffffffffffffffffffffffffff1681526020018373ffffffffffffffffffffffffffffffffffffffff1673ffffffffffffffffffffffffffffffffffffffff1681526020018281526020019350505050602060405180830381600087803b15801561096257600080fd5b505af1158015610976573d6000803e3d6000fd5b505050506040513d602081101561098c57600080fd5b81019080805190602001909291905050505050508080600101915050610772565b50610bf6565b60008090505b600a80549050811015610bf4576000600a828154811015156109d757fe5b9060005260206000200160009054906101000a900473ffffffffffffffffffffffffffffffffffffffff1690506000600860008373ffffffffffffffffffffffffffffffffffffffff1673ffffffffffffffffffffffffffffffffffffffff168152602001908152602001600020549050600760008373ffffffffffffffffffffffffffffffffffffffff1673ffffffffffffffffffffffffffffffffffffffff16815260200190815260200160002060009055600660029054906101000a900473ffffffffffffffffffffffffffffffffffffffff1673ffffffffffffffffffffffffffffffffffffffff1663beabacc8600260009054906101000a900473ffffffffffffffffffffffffffffffffffffffff1684600285026040518463ffffffff167c0100000000000000000000000000000000000000000000000000000000028152600401808473ffffffffffffffffffffffffffffffffffffffff1673ffffffffffffffffffffffffffffffffffffffff1681526020018373ffffffffffffffffffffffffffffffffffffffff1673ffffffffffffffffffffffffffffffffffffffff1681526020018281526020019350505050602060405180830381600087803b158015610ba957600080fd5b505af1158015610bbd573d6000803e3d6000fd5b505050506040513d6020811015610bd357600080fd5b810190808051906020019092919050505050505080806001019150506109b9565b505b6000600660029054906101000a900473ffffffffffffffffffffffffffffffffffffffff1673ffffffffffffffffffffffffffffffffffffffff166370a08231600260009054906101000a900473ffffffffffffffffffffffffffffffffffffffff166040518263ffffffff167c0100000000000000000000000000000000000000000000000000000000028152600401808273ffffffffffffffffffffffffffffffffffffffff1673ffffffffffffffffffffffffffffffffffffffff16815260200191505060206040518083038186803b158015610cd557600080fd5b505afa158015610ce9573d6000803e3d6000fd5b505050506040513d6020811015610cff57600080fd5b810190808051906020019092919050505090506000811115611021576000600482811515610d2957fe5b049050600660029054906101000a900473ffffffffffffffffffffffffffffffffffffffff1673ffffffffffffffffffffffffffffffffffffffff1663beabacc8600260009054906101000a900473ffffffffffffffffffffffffffffffffffffffff16600160009054906101000a900473ffffffffffffffffffffffffffffffffffffffff168486036040518463ffffffff167c0100000000000000000000000000000000000000000000000000000000028152600401808473ffffffffffffffffffffffffffffffffffffffff1673ffffffffffffffffffffffffffffffffffffffff1681526020018373ffffffffffffffffffffffffffffffffffffffff1673ffffffffffffffffffffffffffffffffffffffff1681526020018281526020019350505050602060405180830381600087803b158015610e6b57600080fd5b505af1158015610e7f573d6000803e3d6000fd5b505050506040513d6020811015610e9557600080fd5b810190808051906020019092919050505050600660029054906101000a900473ffffffffffffffffffffffffffffffffffffffff1673ffffffffffffffffffffffffffffffffffffffff1663beabacc8600260009054906101000a900473ffffffffffffffffffffffffffffffffffffffff166000809054906101000a900473ffffffffffffffffffffffffffffffffffffffff16846040518463ffffffff167c0100000000000000000000000000000000000000000000000000000000028152600401808473ffffffffffffffffffffffffffffffffffffffff1673ffffffffffffffffffffffffffffffffffffffff1681526020018373ffffffffffffffffffffffffffffffffffffffff1673ffffffffffffffffffffffffffffffffffffffff1681526020018281526020019350505050602060405180830381600087803b158015610fe357600080fd5b505af1158015610ff7573d6000803e3d6000fd5b505050506040513d602081101561100d57600080fd5b810190808051906020019092919050505050505b6110296118c0565b506001915050919050565b6000600260009054906101000a900473ffffffffffffffffffffffffffffffffffffffff16905090565b6000600354905090565b6000600660009054906101000a900460ff16905090565b606060048054600181600116156101000203166002900480601f0160208091040260200160405190810160405280929190818152602001828054600181600116156101000203166002900480156111175780601f106110ec57610100808354040283529160200191611117565b820191906000526020600020905b8154815290600101906020018083116110fa57829003601f168201915b5050505050905090565b60035481565b60076020528060005260406000206000915090505481565b600160009054906101000a900473ffffffffffffffffffffffffffffffffffffffff1681565b60048054600181600116156101000203166002900480601f0160208091040260200160405190810160405280929190818152602001828054600181600116156101000203166002900480156111fb5780601f106111d0576101008083540402835291602001916111fb565b820191906000526020600020905b8154815290600101906020018083116111de57829003601f168201915b505050505081565b6000808311151561121357600080fd5b8260055401600a60086003540281151561122957fe5b0411151561123657600080fd5b8260056000828254019250508190555081156112fb5782600760008673ffffffffffffffffffffffffffffffffffffffff1673ffffffffffffffffffffffffffffffffffffffff1681526020019081526020016000208190555060098490806001815401808255809150509060018203906000526020600020016000909192909190916101000a81548173ffffffffffffffffffffffffffffffffffffffff021916908373ffffffffffffffffffffffffffffffffffffffff160217905550506113a6565b82600860008673ffffffffffffffffffffffffffffffffffffffff1673ffffffffffffffffffffffffffffffffffffffff16815260200190815260200160002081905550600a8490806001815401808255809150509060018203906000526020600020016000909192909190916101000a81548173ffffffffffffffffffffffffffffffffffffffff021916908373ffffffffffffffffffffffffffffffffffffffff160217905550505b600b60009054906101000a900473ffffffffffffffffffffffffffffffffffffffff16600660026101000a81548173ffffffffffffffffffffffffffffffffffffffff021916908373ffffffffffffffffffffffffffffffffffffffff160217905550600660029054906101000a900473ffffffffffffffffffffffffffffffffffffffff1673ffffffffffffffffffffffffffffffffffffffff1663beabacc885600260009054906101000a900473ffffffffffffffffffffffffffffffffffffffff16866040518463ffffffff167c0100000000000000000000000000000000000000000000000000000000028152600401808473ffffffffffffffffffffffffffffffffffffffff1673ffffffffffffffffffffffffffffffffffffffff1681526020018373ffffffffffffffffffffffffffffffffffffffff1673ffffffffffffffffffffffffffffffffffffffff1681526020018281526020019350505050602060405180830381600087803b15801561152457600080fd5b505af1158015611538573d6000803e3d6000fd5b505050506040513d602081101561154e57600080fd5b810190808051906020019092919050505050600190509392505050565b60055481565b6000808411151561158157600080fd5b8173ffffffffffffffffffffffffffffffffffffffff168373ffffffffffffffffffffffffffffffffffffffff16141515156115bc57600080fd5b81600660026101000a81548173ffffffffffffffffffffffffffffffffffffffff021916908373ffffffffffffffffffffffffffffffffffffffff16021790555033600160006101000a81548173ffffffffffffffffffffffffffffffffffffffff021916908373ffffffffffffffffffffffffffffffffffffffff1602179055508460049080519060200190611654929190611948565b50836003819055506001600660006101000a81548160ff02191690831515021790555082600260006101000a81548173ffffffffffffffffffffffffffffffffffffffff021916908373ffffffffffffffffffffffffffffffffffffffff16021790555081600b60006101000a81548173ffffffffffffffffffffffffffffffffffffffff021916908373ffffffffffffffffffffffffffffffffffffffff160217905550600660029054906101000a900473ffffffffffffffffffffffffffffffffffffffff1673ffffffffffffffffffffffffffffffffffffffff1663beabacc8600160009054906101000a900473ffffffffffffffffffffffffffffffffffffffff16600260009054906101000a900473ffffffffffffffffffffffffffffffffffffffff16876040518463ffffffff167c0100000000000000000000000000000000000000000000000000000000028152600401808473ffffffffffffffffffffffffffffffffffffffff1673ffffffffffffffffffffffffffffffffffffffff1681526020018373ffffffffffffffffffffffffffffffffffffffff1673ffffffffffffffffffffffffffffffffffffffff1681526020018281526020019350505050602060405180830381600087803b15801561183657600080fd5b505af115801561184a573d6000803e3d6000fd5b505050506040513d602081101561186057600080fd5b81019080805190602001909291905050505060019050949350505050565b6000600160009054906101000a900473ffffffffffffffffffffffffffffffffffffffff16905090565b60086020528060005260406000206000915090505481565b6000806005819055506000600660006101000a81548160ff0219169083151502179055506000600660016101000a81548160ff0219169083151502179055506009600061190d91906119c8565b600a600061191b91906119c8565b6001905090565b600260009054906101000a900473ffffffffffffffffffffffffffffffffffffffff1681565b828054600181600116156101000203166002900490600052602060002090601f016020900481019282601f1061198957805160ff19168380011785556119b7565b828001600101855582156119b7579182015b828111156119b657825182559160200191906001019061199b565b5b5090506119c491906119e9565b5090565b50805460008255906000526020600020908101906119e691906119e9565b50565b611a0b91905b80821115611a075760008160009055506001016119ef565b5090565b9056fea165627a7a72305820b1198df440314b6298558c20327d95ae0c4192e1da9ebc2ab8b08c66eba4e9140029",
  "source": "pragma solidity ^0.5.0;\n// ERC20 coin ref for transffering\nimport \"./BetCoin.sol\";\ncontract Wager \n    {\n    address owner;\n    address public wagerOwner;\n    address public escrowAC;\n    uint public wagerCap;\n    string public wagerTitle;\n    uint public bidTotal = 0;\n    bool wagerStarted = false;\n    bool wagerEnded = false;\n    BetCoin coinInstance;\n    // array mapping to hold the bidding address\n    mapping(address => uint) public bidYesRecord;\n    mapping(address => uint) public bidNoRecord;\n    address[] bidYesRecordArray;\n    address[] bidNoRecordArray;\n    address  coinAddr;\n\n   constructor() public {\n        owner = msg.sender;\n   }\n\n    // Initialize the wager for a dealer\n    function startWager(string memory _wagerTitle, uint _wagerCap, address  _escrowAC, address _coinAddr) public returns (bool success)\n    {\n        // initialize the ERC20 token contract\n        require( _wagerCap > 0 );\n        require( _escrowAC != _coinAddr );\n        coinInstance = BetCoin(_coinAddr);\n        wagerOwner=msg.sender;\n        wagerTitle = _wagerTitle;\n        wagerCap = _wagerCap;\n        wagerStarted = true;\n        escrowAC = _escrowAC;\n        coinAddr = _coinAddr;\n        // Transfer the token from dealer account to escrow account\n        coinInstance.transfer(wagerOwner,escrowAC,_wagerCap);\n        return true;\n    }\n    // Return the status of a wager\n    function isItAlive() public view returns ( bool)\n    {\n        return wagerStarted;\n      }\n    // Return wager name\n      function retWagerName() public view returns ( string memory)\n      {\n          return wagerTitle;\n      }\n      // Return wager cap\n      function retWagerCap() public view returns ( uint)\n      {\n          return wagerCap;\n      }\n      // Return escrow account\n      function retEscrowAC() public view returns ( address)\n      {\n          return escrowAC;\n      }\n      // Return wager owner\n      function retWagerOwner() public view returns ( address)\n      {\n          return wagerOwner;\n      }\n\n    // Initiate a bid\n    function bid(address _bidder, uint _bidCount, bool typeValue) public returns (bool success)\n    {\n        require( _bidCount > 0 );\n        // set the limit to 80%\n        require ( ((wagerCap * 8) / 10)  >  ( bidTotal + _bidCount) );\n        bidTotal += _bidCount;\n       \n        if ( typeValue )\n         {\n            bidYesRecord[_bidder] = _bidCount;\n            bidYesRecordArray.push(_bidder);\n         }\n        else\n        {\n            bidNoRecord[_bidder] = _bidCount; \n            bidNoRecordArray.push(_bidder);\n        } // initialize the ERC20 token contract\n        coinInstance = BetCoin(coinAddr);\n        coinInstance.transfer(_bidder,escrowAC,_bidCount);\n        return true;\n    }\n    // close the bid and distribute tokens based on winning bid\n    function closeWager(bool closingBell) public payable returns ( bool success)\n    {\n        // initialize the ERC20 token contract\n        coinInstance = BetCoin(coinAddr);\n        // process the payout for all yes bids\n        if ( closingBell)\n        {\n            for (uint ctr = 0; ctr < bidYesRecordArray.length; ctr++) {\n                address addr = bidYesRecordArray[ctr];\n                uint tok = bidYesRecord[addr];\n                delete bidYesRecord[addr];\n                coinInstance.transfer(escrowAC,addr,tok * 2);\n            }\n\n        }\n         // process the payout for all no bids\n        else {\n            for (uint ctr = 0; ctr < bidNoRecordArray.length; ctr++) {\n                address addr = bidNoRecordArray[ctr];\n                uint tok = bidNoRecord[addr];\n                delete bidYesRecord[addr];\n                coinInstance.transfer(escrowAC,addr,tok * 2);\n            }\n \n        }\n        // Transfer the rest to dealer\n        uint bal = coinInstance.balanceOf(escrowAC);\n        if ( bal > 0 )\n        {\n            // profit for the dealer\n            uint profitToDealer = ( bal / 4 );\n            coinInstance.transfer(escrowAC,wagerOwner,bal - profitToDealer);\n            coinInstance.transfer(escrowAC,owner,profitToDealer);\n        }\n        reset();\n        return true;\n    }\n    // Reset the wager attributes\n    function reset() public returns (bool success)\n    {\n        bidTotal = 0;\n        wagerStarted = false;\n        wagerEnded = false;\n        delete bidYesRecordArray;\n        delete bidNoRecordArray;\n        return true;\n    }\n    \n    \n}",
  "sourcePath": "/home/karthika/Desktop/CED_SELECTED_PROJECTS/betcoin-ram/contracts/Wager.sol",
  "compiler": {
    "name": "solc",
    "version": "0.5.0+commit.1d4f565a.Emscripten.clang"
  },
  "schemaVersion": "3.0.8",
  "updatedAt": "2019-05-03T04:34:04.705Z",
  "devdoc": {
    "methods": {}
  },
  "userdoc": {
    "methods": {}
  }
}